{
  "contractName": "ExerciceSolution",
  "abi": [
    {
      "inputs": [],
      "stateMutability": "nonpayable",
      "type": "constructor"
    },
    {
      "inputs": [],
      "name": "depositSomeTokens",
      "outputs": [],
      "stateMutability": "nonpayable",
      "type": "function"
    },
    {
      "inputs": [],
      "name": "withdrawSomeTokens",
      "outputs": [],
      "stateMutability": "nonpayable",
      "type": "function"
    },
    {
      "inputs": [],
      "name": "borrowSomeTokens",
      "outputs": [],
      "stateMutability": "nonpayable",
      "type": "function"
    },
    {
      "inputs": [],
      "name": "repaySomeTokens",
      "outputs": [],
      "stateMutability": "nonpayable",
      "type": "function"
    },
    {
      "inputs": [],
      "name": "doAFlashLoan",
      "outputs": [],
      "stateMutability": "nonpayable",
      "type": "function"
    },
    {
      "inputs": [
        {
          "internalType": "address",
          "name": "_flashLoanAddress",
          "type": "address"
        }
      ],
      "name": "doAFlashLoanTEST",
      "outputs": [],
      "stateMutability": "nonpayable",
      "type": "function"
    },
    {
      "inputs": [],
      "name": "repayFlashLoan",
      "outputs": [],
      "stateMutability": "nonpayable",
      "type": "function"
    },
    {
      "inputs": [
        {
          "internalType": "uint256",
          "name": "_amount",
          "type": "uint256"
        }
      ],
      "name": "approveUSDC",
      "outputs": [
        {
          "internalType": "bool",
          "name": "",
          "type": "bool"
        }
      ],
      "stateMutability": "nonpayable",
      "type": "function"
    }
  ],
  "bytecode": "0x608060405234801561001057600080fd5b50610a81806100206000396000f3fe608060405234801561001057600080fd5b50600436106100885760003560e01c8063d871f5941161005b578063d871f5941461012b578063db50609f14610135578063f6b96bae1461013f578063fc6669b61461014957610088565b80631a231a711461008d57806328a33237146100975780634b5bd34f146100db5780635f80a9cf146100e5575b600080fd5b610095610153565b005b6100d9600480360360208110156100ad57600080fd5b81019080803573ffffffffffffffffffffffffffffffffffffffff169060200190929190505050610269565b005b6100e3610323565b005b610111600480360360208110156100fb57600080fd5b810190808035906020019092919050505061055b565b604051808215151515815260200191505060405180910390f35b61013361064e565b005b61013d61071b565b005b610147610844565b005b610151610a49565b005b737b5c526b7f8dfdff278b4a3e045083fba402879073ffffffffffffffffffffffffffffffffffffffff1663a415bcad7365afadd39029741b3b8f0756952c74678c9cec93620f424060026000306040518663ffffffff1660e01b8152600401808673ffffffffffffffffffffffffffffffffffffffff1673ffffffffffffffffffffffffffffffffffffffff1681526020018581526020018481526020018361ffff1681526020018273ffffffffffffffffffffffffffffffffffffffff1673ffffffffffffffffffffffffffffffffffffffff16815260200195505050505050600060405180830381600087803b15801561024f57600080fd5b505af1158015610263573d6000803e3d6000fd5b50505050565b8073ffffffffffffffffffffffffffffffffffffffff1663d54ba9547365afadd39029741b3b8f0756952c74678c9cec9363039387006040518363ffffffff1660e01b8152600401808373ffffffffffffffffffffffffffffffffffffffff1673ffffffffffffffffffffffffffffffffffffffff16815260200182815260200192505050600060405180830381600087803b15801561030857600080fd5b505af115801561031c573d6000803e3d6000fd5b5050505050565b7365afadd39029741b3b8f0756952c74678c9cec9373ffffffffffffffffffffffffffffffffffffffff1663095ea7b3737b5c526b7f8dfdff278b4a3e045083fba4028790629896806040518363ffffffff1660e01b8152600401808373ffffffffffffffffffffffffffffffffffffffff1673ffffffffffffffffffffffffffffffffffffffff16815260200182815260200192505050602060405180830381600087803b1580156103d557600080fd5b505af11580156103e9573d6000803e3d6000fd5b505050506040513d60208110156103ff57600080fd5b810190808051906020019092919050505050737b5c526b7f8dfdff278b4a3e045083fba402879073ffffffffffffffffffffffffffffffffffffffff1663573ade817365afadd39029741b3b8f0756952c74678c9cec937fffffffffffffffffffffffffffffffffffffffffffffffffffffffffffffffff6002306040518563ffffffff1660e01b8152600401808573ffffffffffffffffffffffffffffffffffffffff1673ffffffffffffffffffffffffffffffffffffffff1681526020018481526020018381526020018273ffffffffffffffffffffffffffffffffffffffff1673ffffffffffffffffffffffffffffffffffffffff168152602001945050505050602060405180830381600087803b15801561051d57600080fd5b505af1158015610531573d6000803e3d6000fd5b505050506040513d602081101561054757600080fd5b810190808051906020019092919050505050565b60007365afadd39029741b3b8f0756952c74678c9cec9373ffffffffffffffffffffffffffffffffffffffff1663095ea7b3737b5c526b7f8dfdff278b4a3e045083fba4028790846040518363ffffffff1660e01b8152600401808373ffffffffffffffffffffffffffffffffffffffff1673ffffffffffffffffffffffffffffffffffffffff16815260200182815260200192505050602060405180830381600087803b15801561060c57600080fd5b505af1158015610620573d6000803e3d6000fd5b505050506040513d602081101561063657600080fd5b81019080805190602001909291905050509050919050565b737b5c526b7f8dfdff278b4a3e045083fba402879073ffffffffffffffffffffffffffffffffffffffff1663d54ba9547365afadd39029741b3b8f0756952c74678c9cec9363039387006040518363ffffffff1660e01b8152600401808373ffffffffffffffffffffffffffffffffffffffff1673ffffffffffffffffffffffffffffffffffffffff16815260200182815260200192505050600060405180830381600087803b15801561070157600080fd5b505af1158015610715573d6000803e3d6000fd5b50505050565b737b5c526b7f8dfdff278b4a3e045083fba402879073ffffffffffffffffffffffffffffffffffffffff166369328dec73ba8dced3512925e52fe67b1b5329187589072a55670de0b6b3a7640000306040518463ffffffff1660e01b8152600401808473ffffffffffffffffffffffffffffffffffffffff1673ffffffffffffffffffffffffffffffffffffffff1681526020018381526020018273ffffffffffffffffffffffffffffffffffffffff1673ffffffffffffffffffffffffffffffffffffffff1681526020019350505050602060405180830381600087803b15801561080657600080fd5b505af115801561081a573d6000803e3d6000fd5b505050506040513d602081101561083057600080fd5b810190808051906020019092919050505050565b73ba8dced3512925e52fe67b1b5329187589072a5573ffffffffffffffffffffffffffffffffffffffff1663095ea7b3737b5c526b7f8dfdff278b4a3e045083fba4028790678ac7230489e800006040518363ffffffff1660e01b8152600401808373ffffffffffffffffffffffffffffffffffffffff1673ffffffffffffffffffffffffffffffffffffffff16815260200182815260200192505050602060405180830381600087803b1580156108fb57600080fd5b505af115801561090f573d6000803e3d6000fd5b505050506040513d602081101561092557600080fd5b810190808051906020019092919050505050737b5c526b7f8dfdff278b4a3e045083fba402879073ffffffffffffffffffffffffffffffffffffffff1663617ba03773ba8dced3512925e52fe67b1b5329187589072a55678ac7230489e800003060006040518563ffffffff1660e01b8152600401808573ffffffffffffffffffffffffffffffffffffffff1673ffffffffffffffffffffffffffffffffffffffff1681526020018481526020018373ffffffffffffffffffffffffffffffffffffffff1673ffffffffffffffffffffffffffffffffffffffff1681526020018261ffff168152602001945050505050600060405180830381600087803b158015610a2f57600080fd5b505af1158015610a43573d6000803e3d6000fd5b50505050565b56fea2646970667358221220a4bde65e95be3218bf0ff056f516b289d1e89bf328d739edacd700ad76662af264736f6c63430006020033",
  "source": "// SPDX-License-Identifier: MIT\r\npragma solidity ^0.6.0;\r\n\r\nimport \"./IExerciceSolution.sol\";\r\nimport \"./IERC20.sol\";\r\n\r\nimport { IPool } from \"./IPool.sol\";\r\nimport { DataTypes } from \"./DataTypes.sol\";\r\n\r\nimport \"./FlashLoan.sol\";\r\n\r\ncontract ExerciceSolution is IExerciceSolution\r\n{\r\n   address private constant daiAddress = 0xBa8DCeD3512925e52FE67b1b5329187589072A55;\r\n   address private constant usdcAddress = 0x65aFADD39029741B3b8f0756952C74678c9cEC93;\r\n   // pool proxy aavee\r\n   address private constant poolAddress = 0x7b5C526B7F8dfdff278b4a3e045083FBA4028790;\r\n\r\n   address private constant flashLoanAddress = 0x7b5C526B7F8dfdff278b4a3e045083FBA4028790;\r\n\r\n   constructor() public {} \r\n\r\n   function depositSomeTokens() override external{\r\n\r\n      // approve aavee pool\r\n      IERC20(daiAddress).approve(poolAddress, 10*10**18);\r\n      // deposit in aavee\r\n      IPool(poolAddress).supply(daiAddress, 10*10**18, address(this), 0);\r\n   }\r\n\r\n   function withdrawSomeTokens() override external{\r\n\r\n     IPool(poolAddress).withdraw(daiAddress, 1*10**18, address(this));   \r\n   }\r\n\r\n   function borrowSomeTokens() override external {\r\n\r\n      // borrow from aavee\r\n      IPool(poolAddress).borrow(usdcAddress, 1*10**6,  2, 0, address(this));\r\n   }\r\n\r\n\r\n   function repaySomeTokens() override external {\r\n\r\n      IERC20(usdcAddress).approve(poolAddress, 10*10**6);\r\n\r\n      IPool(poolAddress).repay(usdcAddress, uint(-1), 2, address(this));\r\n   }\r\n\r\n   function doAFlashLoan() override external {\r\n\r\n      // Borrow 1M USDC (0.09% fee = 90k)\r\n      FlashLoan(flashLoanAddress).requestFlashLoan(usdcAddress, 1000000*10*6);\r\n   }\r\n\r\n   function doAFlashLoanTEST(address _flashLoanAddress) external {\r\n\r\n      // Borrow 1M USDC (0.09% fee = 90k)\r\n      FlashLoan(_flashLoanAddress).requestFlashLoan(usdcAddress, 1000000*10*6);\r\n   }\r\n\r\n   function repayFlashLoan() override external {}\r\n\r\n   // approve flashloan to spend\r\n   function approveUSDC(uint256 _amount) external returns (bool) {\r\n      return IERC20(usdcAddress).approve(flashLoanAddress, _amount);\r\n   }\r\n}",
  "sourcePath": "C:\\Users\\cleme\\OneDrive\\Documents\\Esilv - FIN\\Blockchain\\lending-101\\contracts\\ExerciceSolution.sol",
  "compiler": {
    "name": "solc",
    "version": "0.6.2+commit.bacdbe57.Emscripten.clang"
  },
  "schemaVersion": "3.4.3",
  "updatedAt": "2023-02-18T18:21:54.490Z",
  "devdoc": {
    "methods": {}
  },
  "userdoc": {
    "methods": {}
  }
}