{
  "contractName": "FlashLoan",
  "abi": [
    {
      "inputs": [],
      "stateMutability": "nonpayable",
      "type": "constructor"
    },
    {
      "inputs": [
        {
          "internalType": "address",
          "name": "asset",
          "type": "address"
        },
        {
          "internalType": "uint256",
          "name": "amount",
          "type": "uint256"
        },
        {
          "internalType": "uint256",
          "name": "premium",
          "type": "uint256"
        },
        {
          "internalType": "address",
          "name": "initiator",
          "type": "address"
        },
        {
          "internalType": "bytes",
          "name": "params",
          "type": "bytes"
        }
      ],
      "name": "executeOperation",
      "outputs": [
        {
          "internalType": "bool",
          "name": "",
          "type": "bool"
        }
      ],
      "stateMutability": "nonpayable",
      "type": "function"
    },
    {
      "inputs": [
        {
          "internalType": "address",
          "name": "_token",
          "type": "address"
        },
        {
          "internalType": "uint256",
          "name": "_amount",
          "type": "uint256"
        }
      ],
      "name": "requestFlashLoan",
      "outputs": [],
      "stateMutability": "nonpayable",
      "type": "function"
    },
    {
      "inputs": [],
      "name": "ADDRESSES_PROVIDER",
      "outputs": [
        {
          "internalType": "contract IPoolAddressesProvider",
          "name": "",
          "type": "address"
        }
      ],
      "stateMutability": "view",
      "type": "function"
    },
    {
      "inputs": [],
      "name": "POOL",
      "outputs": [
        {
          "internalType": "contract IPool",
          "name": "",
          "type": "address"
        }
      ],
      "stateMutability": "view",
      "type": "function"
    },
    {
      "inputs": [
        {
          "internalType": "address",
          "name": "_tokenAddress",
          "type": "address"
        }
      ],
      "name": "getBalance",
      "outputs": [
        {
          "internalType": "uint256",
          "name": "",
          "type": "uint256"
        }
      ],
      "stateMutability": "view",
      "type": "function"
    },
    {
      "inputs": [
        {
          "internalType": "address",
          "name": "_tokenAddress",
          "type": "address"
        }
      ],
      "name": "withdraw",
      "outputs": [],
      "stateMutability": "nonpayable",
      "type": "function"
    }
  ],
  "bytecode": "0x608060405234801561001057600080fd5b50336000806101000a81548173ffffffffffffffffffffffffffffffffffffffff021916908373ffffffffffffffffffffffffffffffffffffffff1602179055506109e3806100606000396000f3fe608060405234801561001057600080fd5b50600436106100625760003560e01c80630542975c146100675780631b11d0ff146100b157806351cff8d9146101965780637535d246146101da578063d54ba95414610224578063f8b2cb4f14610272575b600080fd5b61006f6102ca565b604051808273ffffffffffffffffffffffffffffffffffffffff1673ffffffffffffffffffffffffffffffffffffffff16815260200191505060405180910390f35b61017c600480360360a08110156100c757600080fd5b81019080803573ffffffffffffffffffffffffffffffffffffffff1690602001909291908035906020019092919080359060200190929190803573ffffffffffffffffffffffffffffffffffffffff1690602001909291908035906020019064010000000081111561013857600080fd5b82018360208201111561014a57600080fd5b8035906020019184600183028401116401000000008311171561016c57600080fd5b90919293919293905050506102e6565b604051808215151515815260200191505060405180910390f35b6101d8600480360360208110156101ac57600080fd5b81019080803573ffffffffffffffffffffffffffffffffffffffff1690602001909291905050506104e5565b005b6101e261070d565b604051808273ffffffffffffffffffffffffffffffffffffffff1673ffffffffffffffffffffffffffffffffffffffff16815260200191505060405180910390f35b6102706004803603604081101561023a57600080fd5b81019080803573ffffffffffffffffffffffffffffffffffffffff16906020019092919080359060200190929190505050610729565b005b6102b46004803603602081101561028857600080fd5b81019080803573ffffffffffffffffffffffffffffffffffffffff1690602001909291905050506108be565b6040518082815260200191505060405180910390f35b6000737b5c526b7f8dfdff278b4a3e045083fba4028790905090565b60007365afadd39029741b3b8f0756952c74678c9cec9373ffffffffffffffffffffffffffffffffffffffff166323b872dd303364174876e8006040518463ffffffff1660e01b8152600401808473ffffffffffffffffffffffffffffffffffffffff1673ffffffffffffffffffffffffffffffffffffffff1681526020018373ffffffffffffffffffffffffffffffffffffffff1673ffffffffffffffffffffffffffffffffffffffff1681526020018281526020019350505050602060405180830381600087803b1580156103bc57600080fd5b505af11580156103d0573d6000803e3d6000fd5b505050506040513d60208110156103e657600080fd5b810190808051906020019092919050505050600085870190508773ffffffffffffffffffffffffffffffffffffffff1663095ea7b3737b5c526b7f8dfdff278b4a3e045083fba4028790836040518363ffffffff1660e01b8152600401808373ffffffffffffffffffffffffffffffffffffffff1673ffffffffffffffffffffffffffffffffffffffff16815260200182815260200192505050602060405180830381600087803b15801561049a57600080fd5b505af11580156104ae573d6000803e3d6000fd5b505050506040513d60208110156104c457600080fd5b81019080805190602001909291905050505060019150509695505050505050565b6000809054906101000a900473ffffffffffffffffffffffffffffffffffffffff1673ffffffffffffffffffffffffffffffffffffffff163373ffffffffffffffffffffffffffffffffffffffff161461058a576040517f08c379a000000000000000000000000000000000000000000000000000000000815260040180806020018281038252602e815260200180610980602e913960400191505060405180910390fd5b60008190508073ffffffffffffffffffffffffffffffffffffffff1663a9059cbb338373ffffffffffffffffffffffffffffffffffffffff166370a08231306040518263ffffffff1660e01b8152600401808273ffffffffffffffffffffffffffffffffffffffff1673ffffffffffffffffffffffffffffffffffffffff16815260200191505060206040518083038186803b15801561062957600080fd5b505afa15801561063d573d6000803e3d6000fd5b505050506040513d602081101561065357600080fd5b81019080805190602001909291905050506040518363ffffffff1660e01b8152600401808373ffffffffffffffffffffffffffffffffffffffff1673ffffffffffffffffffffffffffffffffffffffff16815260200182815260200192505050602060405180830381600087803b1580156106cd57600080fd5b505af11580156106e1573d6000803e3d6000fd5b505050506040513d60208110156106f757600080fd5b8101908080519060200190929190505050505050565b6000737b5c526b7f8dfdff278b4a3e045083fba4028790905090565b60003090506000839050600083905060606040518060200160405280600081525090506000809050737b5c526b7f8dfdff278b4a3e045083fba402879073ffffffffffffffffffffffffffffffffffffffff166342b0b77c86868686866040518663ffffffff1660e01b8152600401808673ffffffffffffffffffffffffffffffffffffffff1673ffffffffffffffffffffffffffffffffffffffff1681526020018573ffffffffffffffffffffffffffffffffffffffff1673ffffffffffffffffffffffffffffffffffffffff168152602001848152602001806020018361ffff1661ffff168152602001828103825284818151815260200191508051906020019080838360005b8381101561084d578082015181840152602081019050610832565b50505050905090810190601f16801561087a5780820380516001836020036101000a031916815260200191505b509650505050505050600060405180830381600087803b15801561089d57600080fd5b505af11580156108b1573d6000803e3d6000fd5b5050505050505050505050565b60008173ffffffffffffffffffffffffffffffffffffffff166370a08231306040518263ffffffff1660e01b8152600401808273ffffffffffffffffffffffffffffffffffffffff1673ffffffffffffffffffffffffffffffffffffffff16815260200191505060206040518083038186803b15801561093d57600080fd5b505afa158015610951573d6000803e3d6000fd5b505050506040513d602081101561096757600080fd5b8101908080519060200190929190505050905091905056fe4f6e6c792074686520636f6e7472616374206f776e65722063616e2063616c6c20746869732066756e6374696f6ea264697066735822122034fdee2b1bb354c67d43b4f3e416adf2a7ad75999ee3b669105b4504e57e606b64736f6c63430006020033",
  "source": "// SPDX-License-Identifier: MIT\r\npragma solidity 0.6.2;\r\nimport \"./IERC20.sol\";\r\nimport \"./IFlashLoanSimpleReceiver.sol\";\r\nimport \"./IPoolAddressesProvider.sol\";\r\n\r\ncontract FlashLoan is IFlashLoanSimpleReceiver {\r\n\r\n    address payable owner;\r\n    // pool proxy aavee\r\n    address private constant poolAddress = 0x7b5C526B7F8dfdff278b4a3e045083FBA4028790;\r\n    address private constant usdcAddress = 0x65aFADD39029741B3b8f0756952C74678c9cEC93;\r\n\r\n    constructor() public\r\n    {\r\n        owner = payable(msg.sender);\r\n    }\r\n\r\n    // STEP 2 (Automatically called after STEP 1)\r\n    // This function is called after your contract has received the flash loaned amount\r\n    function executeOperation(\r\n        address asset,\r\n        uint256 amount,\r\n        uint256 premium,\r\n        address initiator,\r\n        bytes calldata params\r\n    ) external override returns (bool) {\r\n        \r\n        // This contract now has the funds requested.\r\n        // Your logic goes here.\r\n\r\n        // At the end of your logic above, this contract owes\r\n        // the flashloaned amount + premiums.\r\n        // Therefore ensure your contract has enough to repay\r\n        // these amounts.\r\n\r\n        // CODE (have to earn money here)\r\n        \r\n        // send back 1M to ExerciceSolution\r\n        IERC20(usdcAddress).transferFrom(address(this), msg.sender, 1000000*100000);\r\n\r\n        // Approve the Pool contract allowance to *pull* the owed amount\r\n        uint256 amountOwed = amount + premium;\r\n        IERC20(asset).approve(poolAddress, amountOwed);\r\n\r\n        return true;\r\n    }\r\n\r\n    // STEP 1\r\n    // Allows smartcontracts to access the liquidity of the pool within one transaction, as long as the amount taken plus a fee is returned\r\n    function requestFlashLoan(address _token, uint256 _amount) public {\r\n        address receiverAddress = address(this);\r\n        address asset = _token;\r\n        uint256 amount = _amount;\r\n        bytes memory params = \"\";\r\n        uint16 referralCode = 0;\r\n\r\n         IPool(poolAddress).flashLoanSimple(\r\n            receiverAddress,\r\n            asset,\r\n            amount,\r\n            params,\r\n            referralCode\r\n        );\r\n    }\r\n\r\n    function ADDRESSES_PROVIDER() override external view returns(IPoolAddressesProvider) {\r\n\r\n        return IPoolAddressesProvider(poolAddress);\r\n    }\r\n\r\n    function POOL() override external view returns(IPool) {\r\n\r\n       return IPool(poolAddress);\r\n    }\r\n\r\n    function getBalance(address _tokenAddress) external view returns (uint256) {\r\n        return IERC20(_tokenAddress).balanceOf(address(this));\r\n    }\r\n\r\n    function withdraw(address _tokenAddress) external onlyOwner {\r\n        IERC20 token = IERC20(_tokenAddress);\r\n        token.transfer(msg.sender, token.balanceOf(address(this)));\r\n    }\r\n\r\n    modifier onlyOwner() {\r\n        require(\r\n            msg.sender == owner,\r\n            \"Only the contract owner can call this function\"\r\n        );\r\n        _;\r\n    }\r\n}",
  "sourcePath": "C:\\Users\\cleme\\OneDrive\\Documents\\Esilv - FIN\\Blockchain\\lending-101\\contracts\\FlashLoan.sol",
  "compiler": {
    "name": "solc",
    "version": "0.6.2+commit.bacdbe57.Emscripten.clang"
  },
  "schemaVersion": "3.4.3",
  "updatedAt": "2023-02-18T18:21:54.494Z",
  "devdoc": {
    "methods": {}
  },
  "userdoc": {
    "methods": {}
  }
}