{
  "contractName": "Minter",
  "abi": [
    {
      "inputs": [
        {
          "internalType": "contract MyERC721",
          "name": "_myERC721Instance",
          "type": "address"
        }
      ],
      "stateMutability": "nonpayable",
      "type": "constructor"
    },
    {
      "inputs": [],
      "name": "myERC721Instance",
      "outputs": [
        {
          "internalType": "contract MyERC721",
          "name": "",
          "type": "address"
        }
      ],
      "stateMutability": "view",
      "type": "function"
    },
    {
      "inputs": [
        {
          "internalType": "address",
          "name": "",
          "type": "address"
        }
      ],
      "name": "whitelisted",
      "outputs": [
        {
          "internalType": "bool",
          "name": "",
          "type": "bool"
        }
      ],
      "stateMutability": "view",
      "type": "function"
    },
    {
      "inputs": [],
      "name": "ERC721Address",
      "outputs": [
        {
          "internalType": "address",
          "name": "",
          "type": "address"
        }
      ],
      "stateMutability": "nonpayable",
      "type": "function"
    },
    {
      "inputs": [],
      "name": "mintATokenForMe",
      "outputs": [
        {
          "internalType": "uint256",
          "name": "",
          "type": "uint256"
        }
      ],
      "stateMutability": "nonpayable",
      "type": "function"
    },
    {
      "inputs": [
        {
          "internalType": "bytes",
          "name": "_signature",
          "type": "bytes"
        }
      ],
      "name": "mintATokenForMeWithASignature",
      "outputs": [
        {
          "internalType": "uint256",
          "name": "",
          "type": "uint256"
        }
      ],
      "stateMutability": "nonpayable",
      "type": "function"
    },
    {
      "inputs": [
        {
          "internalType": "bytes32",
          "name": "_hash",
          "type": "bytes32"
        },
        {
          "internalType": "bytes",
          "name": "_signature",
          "type": "bytes"
        }
      ],
      "name": "getAddressFromSignature",
      "outputs": [
        {
          "internalType": "address",
          "name": "",
          "type": "address"
        }
      ],
      "stateMutability": "nonpayable",
      "type": "function"
    },
    {
      "inputs": [
        {
          "internalType": "bytes32",
          "name": "_hash",
          "type": "bytes32"
        },
        {
          "internalType": "bytes",
          "name": "_signature",
          "type": "bytes"
        }
      ],
      "name": "signerIsWhitelisted",
      "outputs": [
        {
          "internalType": "bool",
          "name": "",
          "type": "bool"
        }
      ],
      "stateMutability": "nonpayable",
      "type": "function"
    },
    {
      "inputs": [
        {
          "internalType": "address",
          "name": "_signer",
          "type": "address"
        }
      ],
      "name": "whitelist",
      "outputs": [
        {
          "internalType": "bool",
          "name": "",
          "type": "bool"
        }
      ],
      "stateMutability": "nonpayable",
      "type": "function"
    }
  ],
  "bytecode": "0x608060405234801561001057600080fd5b50604051610d17380380610d178339818101604052602081101561003357600080fd5b8101908080519060200190929190505050806000806101000a81548173ffffffffffffffffffffffffffffffffffffffff021916908373ffffffffffffffffffffffffffffffffffffffff16021790555060018060003373ffffffffffffffffffffffffffffffffffffffff1673ffffffffffffffffffffffffffffffffffffffff16815260200190815260200160002060006101000a81548160ff02191690831515021790555050610c2c806100eb6000396000f3fe608060405234801561001057600080fd5b50600436106100885760003560e01c80639b19251a1161005b5780639b19251a146102c2578063a3c1fc391461031e578063ac4fec2114610368578063d936547e1461038657610088565b8063574490cd1461008d57806379d33606146100d75780637d851a131461019a5780639a9a291f14610235575b600080fd5b6100956103e2565b604051808273ffffffffffffffffffffffffffffffffffffffff1673ffffffffffffffffffffffffffffffffffffffff16815260200191505060405180910390f35b610158600480360360408110156100ed57600080fd5b81019080803590602001909291908035906020019064010000000081111561011457600080fd5b82018360208201111561012657600080fd5b8035906020019184600183028401116401000000008311171561014857600080fd5b909192939192939050505061040b565b604051808273ffffffffffffffffffffffffffffffffffffffff1673ffffffffffffffffffffffffffffffffffffffff16815260200191505060405180910390f35b61021b600480360360408110156101b057600080fd5b8101908080359060200190929190803590602001906401000000008111156101d757600080fd5b8201836020820111156101e957600080fd5b8035906020019184600183028401116401000000008311171561020b57600080fd5b9091929391929390505050610589565b604051808215151515815260200191505060405180910390f35b6102ac6004803603602081101561024b57600080fd5b810190808035906020019064010000000081111561026857600080fd5b82018360208201111561027a57600080fd5b8035906020019184600183028401116401000000008311171561029c57600080fd5b909192939192939050505061062e565b6040518082815260200191505060405180910390f35b610304600480360360208110156102d857600080fd5b81019080803573ffffffffffffffffffffffffffffffffffffffff1690602001909291905050506107cc565b604051808215151515815260200191505060405180910390f35b610326610822565b604051808273ffffffffffffffffffffffffffffffffffffffff1673ffffffffffffffffffffffffffffffffffffffff16815260200191505060405180910390f35b610370610847565b6040518082815260200191505060405180910390f35b6103c86004803603602081101561039c57600080fd5b81019080803573ffffffffffffffffffffffffffffffffffffffff16906020019092919050505061092e565b604051808215151515815260200191505060405180910390f35b60008060009054906101000a900473ffffffffffffffffffffffffffffffffffffffff16905090565b6000606083838080601f016020809104026020016040519081016040528093929190818152602001838380828437600081840152601f19601f82011690508083019250505050505050905060008060006041845114610471576000945050505050610582565b6020840151925060408401519150606084015160001a9050601b8160ff16101561049c57601b810190505b601b8160ff16141580156104b45750601c8160ff1614155b156104c6576000945050505050610582565b60018860405160200180807f19457468657265756d205369676e6564204d6573736167653a0a333200000000815250601c018281526020019150506040516020818303038152906040528051906020012082858560405160008152602001604052604051808581526020018460ff1660ff1681526020018381526020018281526020019450505050506020604051602081039080840390855afa158015610571573d6000803e3d6000fd5b505050602060405103519450505050505b9392505050565b6000600160006105dd8686868080601f016020809104026020016040519081016040528093929190818152602001838380828437600081840152601f19601f8201169050808301925050505050505061094e565b73ffffffffffffffffffffffffffffffffffffffff1673ffffffffffffffffffffffffffffffffffffffff16815260200190815260200160002060009054906101000a900460ff1690509392505050565b60008033326000809054906101000a900473ffffffffffffffffffffffffffffffffffffffff16604051602001808473ffffffffffffffffffffffffffffffffffffffff1673ffffffffffffffffffffffffffffffffffffffff1660601b81526014018373ffffffffffffffffffffffffffffffffffffffff1673ffffffffffffffffffffffffffffffffffffffff1660601b81526014018273ffffffffffffffffffffffffffffffffffffffff1673ffffffffffffffffffffffffffffffffffffffff1660601b815260140193505050506040516020818303038152906040528051906020012090506107668185858080601f016020809104026020016040519081016040528093929190818152602001838380828437600081840152601f19601f82011690508083019250505050505050610a7e565b6107bb576040517f08c379a0000000000000000000000000000000000000000000000000000000008152600401808060200182810382526031815260200180610bc66031913960400191505060405180910390fd5b6107c3610ade565b91505092915050565b6000600160008373ffffffffffffffffffffffffffffffffffffffff1673ffffffffffffffffffffffffffffffffffffffff16815260200190815260200160002060009054906101000a900460ff169050919050565b6000809054906101000a900473ffffffffffffffffffffffffffffffffffffffff1681565b6000806000809054906101000a900473ffffffffffffffffffffffffffffffffffffffff1673ffffffffffffffffffffffffffffffffffffffff166332a93a3a336040518263ffffffff1660e01b8152600401808273ffffffffffffffffffffffffffffffffffffffff1673ffffffffffffffffffffffffffffffffffffffff168152602001915050602060405180830381600087803b1580156108ea57600080fd5b505af11580156108fe573d6000803e3d6000fd5b505050506040513d602081101561091457600080fd5b810190808051906020019092919050505090508091505090565b60016020528060005260406000206000915054906101000a900460ff1681565b60008060008060418551146109695760009350505050610a78565b6020850151925060408501519150606085015160001a9050601b8160ff16101561099457601b810190505b601b8160ff16141580156109ac5750601c8160ff1614155b156109bd5760009350505050610a78565b60018660405160200180807f19457468657265756d205369676e6564204d6573736167653a0a333200000000815250601c018281526020019150506040516020818303038152906040528051906020012082858560405160008152602001604052604051808581526020018460ff1660ff1681526020018381526020018281526020019450505050506020604051602081039080840390855afa158015610a68573d6000803e3d6000fd5b5050506020604051035193505050505b92915050565b600060016000610a8e858561094e565b73ffffffffffffffffffffffffffffffffffffffff1673ffffffffffffffffffffffffffffffffffffffff16815260200190815260200160002060009054906101000a900460ff16905092915050565b6000806000809054906101000a900473ffffffffffffffffffffffffffffffffffffffff1673ffffffffffffffffffffffffffffffffffffffff166332a93a3a336040518263ffffffff1660e01b8152600401808273ffffffffffffffffffffffffffffffffffffffff1673ffffffffffffffffffffffffffffffffffffffff168152602001915050602060405180830381600087803b158015610b8157600080fd5b505af1158015610b95573d6000803e3d6000fd5b505050506040513d6020811015610bab57600080fd5b81019080805190602001909291905050509050809150509056fe7369676e6174757265206973206e6f742070726f766964656420627920616e20617574686f72697a6564206d696e746572a26469706673582212200991fb32e0dc646fe2fb7887d2ec91653d7ea5f3c087e69e34ec884fc27c2f3f64736f6c63430006020033",
  "source": "pragma solidity ^0.6.0;\r\nimport \"./IExerciceSolution.sol\";\r\nimport \"./MyERC721.sol\";\r\n\r\ncontract Minter is IExerciceSolution {\r\n\r\n    MyERC721 public myERC721Instance;\r\n    mapping(address => bool) public whitelisted;\r\n\r\n    constructor(MyERC721 _myERC721Instance) public \r\n    {\r\n        myERC721Instance = _myERC721Instance;\r\n        whitelisted[msg.sender] = true;\r\n    }\r\n\r\n\tfunction ERC721Address() external override returns (address)\r\n    {\r\n        return address(myERC721Instance);\r\n    }\r\n\r\n\tfunction mintATokenForMe() external override returns (uint256)\r\n    {   \r\n        uint256 newTokenId = myERC721Instance.publicMint(msg.sender);\r\n        return newTokenId;\r\n    }\r\n\r\n\tfunction mintATokenForMeWithASignature(bytes calldata _signature) external override returns (uint256)\r\n    {\r\n        bytes32 expectedSignedData = keccak256(abi.encodePacked(msg.sender, tx.origin, address(myERC721Instance)));\r\n        require(signerIsWhitelistedInternal(expectedSignedData, _signature), \"signature is not provided by an authorized minter\");\r\n        return mintATokenForMeInternal();\r\n    }\r\n\r\n\tfunction getAddressFromSignature(bytes32 _hash, bytes calldata _signature) external override returns (address)\r\n    { // Exo_3\r\n        bytes memory signature = _signature;\r\n        bytes32 r;\r\n        bytes32 s;\r\n        uint8 v;\r\n        // Check the signature length\r\n        if (signature.length != 65) {\r\n            return address(0);\r\n        }\r\n        // Divide the signature in r, s and v variables\r\n        // ecrecover takes the signature parameters, and the only way to get them\r\n        // currently is to use assembly.\r\n        // solium-disable-next-line security/no-inline-assembly\r\n        assembly {\r\n          r := mload(add(signature, 32))\r\n          s := mload(add(signature, 64))\r\n          v := byte(0, mload(add(signature, 96)))\r\n        }\r\n        // Version of signature should be 27 or 28, but 0 and 1 are also possible versions\r\n        if (v < 27) \r\n        {\r\n          v += 27;\r\n        }\r\n        // If the version is correct return the signer address\r\n        if (v != 27 && v != 28) \r\n        {\r\n          return address(0);\r\n        } else {\r\n          // solium-disable-next-line arg-overflow\r\n          return ecrecover(keccak256(\r\n            abi.encodePacked(\"\\x19Ethereum Signed Message:\\n32\", _hash)\r\n          ), v, r, s);\r\n        }\r\n    }\r\n\tfunction signerIsWhitelisted(bytes32 _hash, bytes calldata _signature) external override returns (bool)\r\n    {\r\n      return whitelisted[getAddressFromSignatureInternal(_hash, _signature)];\r\n    }\r\n\tfunction whitelist(address _signer) external override returns (bool)\r\n    {\r\n      return whitelisted[_signer];\r\n    }\r\n\r\n    // Because the IExerciceSolution interface methods are external, \r\n    // I have to redefine them bellow to call them internally from this contract\r\n\r\n    function signerIsWhitelistedInternal(bytes32 _hash, bytes memory _signature) internal returns (bool)\r\n    {\r\n       return whitelisted[getAddressFromSignatureInternal(_hash, _signature)];\r\n    }\r\n\r\n\tfunction mintATokenForMeInternal() internal returns (uint256)\r\n    {   \r\n        uint256 newTokenId = myERC721Instance.publicMint(msg.sender);\r\n        return newTokenId;\r\n    }\r\n\r\n    function getAddressFromSignatureInternal(bytes32 _hash, bytes memory signature) internal returns (address)\r\n    { // Exo_3\r\n        bytes32 r;\r\n        bytes32 s;\r\n        uint8 v;\r\n        // Check the signature length\r\n        if (signature.length != 65) {\r\n            return address(0);\r\n        }\r\n        // Divide the signature in r, s and v variables\r\n        // ecrecover takes the signature parameters, and the only way to get them\r\n        // currently is to use assembly.\r\n        // solium-disable-next-line security/no-inline-assembly\r\n        assembly {\r\n          r := mload(add(signature, 32))\r\n          s := mload(add(signature, 64))\r\n          v := byte(0, mload(add(signature, 96)))\r\n        }\r\n        // Version of signature should be 27 or 28, but 0 and 1 are also possible versions\r\n        if (v < 27) \r\n        {\r\n          v += 27;\r\n        }\r\n        // If the version is correct return the signer address\r\n        if (v != 27 && v != 28) \r\n        {\r\n          return address(0);\r\n        } else {\r\n          // solium-disable-next-line arg-overflow\r\n          return ecrecover(keccak256(\r\n            abi.encodePacked(\"\\x19Ethereum Signed Message:\\n32\", _hash)\r\n          ), v, r, s);\r\n        }\r\n    }\r\n\r\n}",
  "sourcePath": "C:\\Users\\cleme\\OneDrive\\Documents\\Esilv - FIN\\Blockchain\\signatures-101-main\\contracts\\Minter.sol",
  "compiler": {
    "name": "solc",
    "version": "0.6.2+commit.bacdbe57.Emscripten.clang"
  },
  "schemaVersion": "3.4.3",
  "updatedAt": "2023-03-02T08:57:36.376Z",
  "devdoc": {
    "methods": {}
  },
  "userdoc": {
    "methods": {}
  }
}